{
  "contractName": "FuckoPops",
  "abi": [
    {
      "inputs": [
        {
          "internalType": "address payable",
          "name": "guy",
          "type": "address"
        },
        {
          "internalType": "string",
          "name": "generativeCodeHash",
          "type": "string"
        }
      ],
      "stateMutability": "nonpayable",
      "type": "constructor"
    },
    {
      "anonymous": false,
      "inputs": [
        {
          "indexed": true,
          "internalType": "address",
          "name": "owner",
          "type": "address"
        },
        {
          "indexed": true,
          "internalType": "address",
          "name": "approved",
          "type": "address"
        },
        {
          "indexed": true,
          "internalType": "uint256",
          "name": "tokenId",
          "type": "uint256"
        }
      ],
      "name": "Approval",
      "type": "event"
    },
    {
      "anonymous": false,
      "inputs": [
        {
          "indexed": true,
          "internalType": "address",
          "name": "owner",
          "type": "address"
        },
        {
          "indexed": true,
          "internalType": "address",
          "name": "operator",
          "type": "address"
        },
        {
          "indexed": false,
          "internalType": "bool",
          "name": "approved",
          "type": "bool"
        }
      ],
      "name": "ApprovalForAll",
      "type": "event"
    },
    {
      "anonymous": false,
      "inputs": [
        {
          "indexed": true,
          "internalType": "uint256",
          "name": "tokenId",
          "type": "uint256"
        }
      ],
      "name": "Mint",
      "type": "event"
    },
    {
      "anonymous": false,
      "inputs": [
        {
          "indexed": true,
          "internalType": "address",
          "name": "from",
          "type": "address"
        },
        {
          "indexed": true,
          "internalType": "address",
          "name": "to",
          "type": "address"
        },
        {
          "indexed": true,
          "internalType": "uint256",
          "name": "tokenId",
          "type": "uint256"
        }
      ],
      "name": "Transfer",
      "type": "event"
    },
    {
      "inputs": [
        {
          "internalType": "address",
          "name": "to",
          "type": "address"
        },
        {
          "internalType": "uint256",
          "name": "tokenId",
          "type": "uint256"
        }
      ],
      "name": "approve",
      "outputs": [],
      "stateMutability": "nonpayable",
      "type": "function"
    },
    {
      "inputs": [
        {
          "internalType": "address",
          "name": "owner",
          "type": "address"
        }
      ],
      "name": "balanceOf",
      "outputs": [
        {
          "internalType": "uint256",
          "name": "",
          "type": "uint256"
        }
      ],
      "stateMutability": "view",
      "type": "function",
      "constant": true
    },
    {
      "inputs": [],
      "name": "baseURI",
      "outputs": [
        {
          "internalType": "string",
          "name": "",
          "type": "string"
        }
      ],
      "stateMutability": "view",
      "type": "function",
      "constant": true
    },
    {
      "inputs": [
        {
          "internalType": "uint256",
          "name": "tokenId",
          "type": "uint256"
        }
      ],
      "name": "getApproved",
      "outputs": [
        {
          "internalType": "address",
          "name": "",
          "type": "address"
        }
      ],
      "stateMutability": "view",
      "type": "function",
      "constant": true
    },
    {
      "inputs": [
        {
          "internalType": "address",
          "name": "owner",
          "type": "address"
        },
        {
          "internalType": "address",
          "name": "operator",
          "type": "address"
        }
      ],
      "name": "isApprovedForAll",
      "outputs": [
        {
          "internalType": "bool",
          "name": "",
          "type": "bool"
        }
      ],
      "stateMutability": "view",
      "type": "function",
      "constant": true
    },
    {
      "inputs": [],
      "name": "name",
      "outputs": [
        {
          "internalType": "string",
          "name": "",
          "type": "string"
        }
      ],
      "stateMutability": "view",
      "type": "function",
      "constant": true
    },
    {
      "inputs": [
        {
          "internalType": "uint256",
          "name": "tokenId",
          "type": "uint256"
        }
      ],
      "name": "ownerOf",
      "outputs": [
        {
          "internalType": "address",
          "name": "",
          "type": "address"
        }
      ],
      "stateMutability": "view",
      "type": "function",
      "constant": true
    },
    {
      "inputs": [
        {
          "internalType": "address",
          "name": "from",
          "type": "address"
        },
        {
          "internalType": "address",
          "name": "to",
          "type": "address"
        },
        {
          "internalType": "uint256",
          "name": "tokenId",
          "type": "uint256"
        }
      ],
      "name": "safeTransferFrom",
      "outputs": [],
      "stateMutability": "nonpayable",
      "type": "function"
    },
    {
      "inputs": [
        {
          "internalType": "address",
          "name": "from",
          "type": "address"
        },
        {
          "internalType": "address",
          "name": "to",
          "type": "address"
        },
        {
          "internalType": "uint256",
          "name": "tokenId",
          "type": "uint256"
        },
        {
          "internalType": "bytes",
          "name": "_data",
          "type": "bytes"
        }
      ],
      "name": "safeTransferFrom",
      "outputs": [],
      "stateMutability": "nonpayable",
      "type": "function"
    },
    {
      "inputs": [
        {
          "internalType": "address",
          "name": "operator",
          "type": "address"
        },
        {
          "internalType": "bool",
          "name": "approved",
          "type": "bool"
        }
      ],
      "name": "setApprovalForAll",
      "outputs": [],
      "stateMutability": "nonpayable",
      "type": "function"
    },
    {
      "inputs": [
        {
          "internalType": "bytes4",
          "name": "interfaceId",
          "type": "bytes4"
        }
      ],
      "name": "supportsInterface",
      "outputs": [
        {
          "internalType": "bool",
          "name": "",
          "type": "bool"
        }
      ],
      "stateMutability": "view",
      "type": "function",
      "constant": true
    },
    {
      "inputs": [],
      "name": "symbol",
      "outputs": [
        {
          "internalType": "string",
          "name": "",
          "type": "string"
        }
      ],
      "stateMutability": "view",
      "type": "function",
      "constant": true
    },
    {
      "inputs": [
        {
          "internalType": "uint256",
          "name": "index",
          "type": "uint256"
        }
      ],
      "name": "tokenByIndex",
      "outputs": [
        {
          "internalType": "uint256",
          "name": "",
          "type": "uint256"
        }
      ],
      "stateMutability": "view",
      "type": "function",
      "constant": true
    },
    {
      "inputs": [
        {
          "internalType": "address",
          "name": "owner",
          "type": "address"
        },
        {
          "internalType": "uint256",
          "name": "index",
          "type": "uint256"
        }
      ],
      "name": "tokenOfOwnerByIndex",
      "outputs": [
        {
          "internalType": "uint256",
          "name": "",
          "type": "uint256"
        }
      ],
      "stateMutability": "view",
      "type": "function",
      "constant": true
    },
    {
      "inputs": [
        {
          "internalType": "uint256",
          "name": "tokenId",
          "type": "uint256"
        }
      ],
      "name": "tokenURI",
      "outputs": [
        {
          "internalType": "string",
          "name": "",
          "type": "string"
        }
      ],
      "stateMutability": "view",
      "type": "function",
      "constant": true
    },
    {
      "inputs": [],
      "name": "totalSupply",
      "outputs": [
        {
          "internalType": "uint256",
          "name": "",
          "type": "uint256"
        }
      ],
      "stateMutability": "view",
      "type": "function",
      "constant": true
    },
    {
      "inputs": [
        {
          "internalType": "address",
          "name": "from",
          "type": "address"
        },
        {
          "internalType": "address",
          "name": "to",
          "type": "address"
        },
        {
          "internalType": "uint256",
          "name": "tokenId",
          "type": "uint256"
        }
      ],
      "name": "transferFrom",
      "outputs": [],
      "stateMutability": "nonpayable",
      "type": "function"
    },
    {
      "inputs": [
        {
          "internalType": "address",
          "name": "recipient",
          "type": "address"
        }
      ],
      "name": "mintFucko",
      "outputs": [
        {
          "internalType": "uint256",
          "name": "",
          "type": "uint256"
        }
      ],
      "stateMutability": "payable",
      "type": "function",
      "payable": true
    },
    {
      "inputs": [
        {
          "internalType": "uint256",
          "name": "fuckoId",
          "type": "uint256"
        },
        {
          "internalType": "string",
          "name": "newGenerativeCodeHash",
          "type": "string"
        }
      ],
      "name": "sacrificeFucko",
      "outputs": [],
      "stateMutability": "nonpayable",
      "type": "function"
    },
    {
      "inputs": [],
      "name": "lastMintedTokenId",
      "outputs": [
        {
          "internalType": "uint256",
          "name": "",
          "type": "uint256"
        }
      ],
      "stateMutability": "view",
      "type": "function",
      "constant": true
    },
    {
      "inputs": [],
      "name": "currentGenerativeCodeHash",
      "outputs": [
        {
          "internalType": "string",
          "name": "",
          "type": "string"
        }
      ],
      "stateMutability": "view",
      "type": "function",
      "constant": true
    }
  ],
  "bytecode": "0x60806040523480156200001157600080fd5b506040516200387f3803806200387f833981810160405260408110156200003757600080fd5b8101908080519060200190929190805160405193929190846401000000008211156200006257600080fd5b838201915060208201858111156200007957600080fd5b82518660018202830111640100000000821117156200009757600080fd5b8083526020830192505050908051906020019080838360005b83811015620000cd578082015181840152602081019050620000b0565b50505050905090810190601f168015620000fb5780820380516001836020036101000a031916815260200191505b506040525050506040518060400160405280600881526020017f4675636b6f506f700000000000000000000000000000000000000000000000008152506040518060400160405280600481526020017f4655434b00000000000000000000000000000000000000000000000000000000815250620001ab6301ffc9a77c010000000000000000000000000000000000000000000000000000000002620002f8640100000000026401000000009004565b8160069080519060200190620001c39291906200041d565b508060079080519060200190620001dc9291906200041d565b506200021a6380ac58cd7c010000000000000000000000000000000000000000000000000000000002620002f8640100000000026401000000009004565b62000257635b5e139f7c010000000000000000000000000000000000000000000000000000000002620002f8640100000000026401000000009004565b6200029463780e9d637c010000000000000000000000000000000000000000000000000000000002620002f8640100000000026401000000009004565b505081600c60006101000a81548173ffffffffffffffffffffffffffffffffffffffff021916908373ffffffffffffffffffffffffffffffffffffffff16021790555080600b9080519060200190620002ef9291906200041d565b505050620004cc565b63ffffffff7c010000000000000000000000000000000000000000000000000000000002817bffffffffffffffffffffffffffffffffffffffffffffffffffffffff19161415620003b1576040517f08c379a000000000000000000000000000000000000000000000000000000000815260040180806020018281038252601c8152602001807f4552433136353a20696e76616c696420696e746572666163652069640000000081525060200191505060405180910390fd5b6001600080837bffffffffffffffffffffffffffffffffffffffffffffffffffffffff19167bffffffffffffffffffffffffffffffffffffffffffffffffffffffff1916815260200190815260200160002060006101000a81548160ff02191690831515021790555050565b828054600181600116156101000203166002900490600052602060002090601f016020900481019282601f106200046057805160ff191683800117855562000491565b8280016001018555821562000491579182015b828111156200049057825182559160200191906001019062000473565b5b509050620004a09190620004a4565b5090565b620004c991905b80821115620004c5576000816000905550600101620004ab565b5090565b90565b6133a380620004dc6000396000f3fe608060405260043610610147576000357c0100000000000000000000000000000000000000000000000000000000900480636352211e116100c8578063a22cb4651161008c578063a22cb46514610786578063b88d4fde146107e3578063bfb15b07146108f5578063c35ee4aa146109c7578063c87b56dd14610a57578063e985e9c514610b0b57610147565b80636352211e1461055b5780636508b10a146105d65780636c0360eb1461060157806370a082311461069157806395d89b41146106f657610147565b806323b872dd1161010f57806323b872dd1461034f5780632f745c59146103ca5780633cd7a1f81461043957806342842e0e146104915780634f6ccce71461050c57610147565b806301ffc9a71461014c57806306fdde03146101be578063081812fc1461024e578063095ea7b3146102c957806318160ddd14610324575b600080fd5b34801561015857600080fd5b506101a46004803603602081101561016f57600080fd5b8101908080357bffffffffffffffffffffffffffffffffffffffffffffffffffffffff19169060200190929190505050610b94565b604051808215151515815260200191505060405180910390f35b3480156101ca57600080fd5b506101d3610bfb565b6040518080602001828103825283818151815260200191508051906020019080838360005b838110156102135780820151818401526020810190506101f8565b50505050905090810190601f1680156102405780820380516001836020036101000a031916815260200191505b509250505060405180910390f35b34801561025a57600080fd5b506102876004803603602081101561027157600080fd5b8101908080359060200190929190505050610c9d565b604051808273ffffffffffffffffffffffffffffffffffffffff1673ffffffffffffffffffffffffffffffffffffffff16815260200191505060405180910390f35b3480156102d557600080fd5b50610322600480360360408110156102ec57600080fd5b81019080803573ffffffffffffffffffffffffffffffffffffffff16906020019092919080359060200190929190505050610d38565b005b34801561033057600080fd5b50610339610e7c565b6040518082815260200191505060405180910390f35b34801561035b57600080fd5b506103c86004803603606081101561037257600080fd5b81019080803573ffffffffffffffffffffffffffffffffffffffff169060200190929190803573ffffffffffffffffffffffffffffffffffffffff16906020019092919080359060200190929190505050610e8d565b005b3480156103d657600080fd5b50610423600480360360408110156103ed57600080fd5b81019080803573ffffffffffffffffffffffffffffffffffffffff16906020019092919080359060200190929190505050610f03565b6040518082815260200191505060405180910390f35b61047b6004803603602081101561044f57600080fd5b81019080803573ffffffffffffffffffffffffffffffffffffffff169060200190929190505050610f5e565b6040518082815260200191505060405180910390f35b34801561049d57600080fd5b5061050a600480360360608110156104b457600080fd5b81019080803573ffffffffffffffffffffffffffffffffffffffff169060200190929190803573ffffffffffffffffffffffffffffffffffffffff16906020019092919080359060200190929190505050611069565b005b34801561051857600080fd5b506105456004803603602081101561052f57600080fd5b8101908080359060200190929190505050611089565b6040518082815260200191505060405180910390f35b34801561056757600080fd5b506105946004803603602081101561057e57600080fd5b81019080803590602001909291905050506110ac565b604051808273ffffffffffffffffffffffffffffffffffffffff1673ffffffffffffffffffffffffffffffffffffffff16815260200191505060405180910390f35b3480156105e257600080fd5b506105eb6110e3565b6040518082815260200191505060405180910390f35b34801561060d57600080fd5b506106166110f4565b6040518080602001828103825283818151815260200191508051906020019080838360005b8381101561065657808201518184015260208101905061063b565b50505050905090810190601f1680156106835780820380516001836020036101000a031916815260200191505b509250505060405180910390f35b34801561069d57600080fd5b506106e0600480360360208110156106b457600080fd5b81019080803573ffffffffffffffffffffffffffffffffffffffff169060200190929190505050611196565b6040518082815260200191505060405180910390f35b34801561070257600080fd5b5061070b61126b565b6040518080602001828103825283818151815260200191508051906020019080838360005b8381101561074b578082015181840152602081019050610730565b50505050905090810190601f1680156107785780820380516001836020036101000a031916815260200191505b509250505060405180910390f35b34801561079257600080fd5b506107e1600480360360408110156107a957600080fd5b81019080803573ffffffffffffffffffffffffffffffffffffffff16906020019092919080351515906020019092919050505061130d565b005b3480156107ef57600080fd5b506108f36004803603608081101561080657600080fd5b81019080803573ffffffffffffffffffffffffffffffffffffffff169060200190929190803573ffffffffffffffffffffffffffffffffffffffff169060200190929190803590602001909291908035906020019064010000000081111561086d57600080fd5b82018360208201111561087f57600080fd5b803590602001918460018302840111640100000000831117156108a157600080fd5b91908080601f016020809104026020016040519081016040528093929190818152602001838380828437600081840152601f19601f8201169050808301925050505050505091929192905050506114c5565b005b34801561090157600080fd5b506109c56004803603604081101561091857600080fd5b81019080803590602001909291908035906020019064010000000081111561093f57600080fd5b82018360208201111561095157600080fd5b8035906020019184600183028401116401000000008311171561097357600080fd5b91908080601f016020809104026020016040519081016040528093929190818152602001838380828437600081840152601f19601f82011690508083019250505050505050919291929050505061153d565b005b3480156109d357600080fd5b506109dc6115a1565b6040518080602001828103825283818151815260200191508051906020019080838360005b83811015610a1c578082015181840152602081019050610a01565b50505050905090810190601f168015610a495780820380516001836020036101000a031916815260200191505b509250505060405180910390f35b348015610a6357600080fd5b50610a9060048036036020811015610a7a57600080fd5b8101908080359060200190929190505050611643565b6040518080602001828103825283818151815260200191508051906020019080838360005b83811015610ad0578082015181840152602081019050610ab5565b50505050905090810190601f168015610afd5780820380516001836020036101000a031916815260200191505b509250505060405180910390f35b348015610b1757600080fd5b50610b7a60048036036040811015610b2e57600080fd5b81019080803573ffffffffffffffffffffffffffffffffffffffff169060200190929190803573ffffffffffffffffffffffffffffffffffffffff169060200190929190505050611914565b604051808215151515815260200191505060405180910390f35b6000806000837bffffffffffffffffffffffffffffffffffffffffffffffffffffffff19167bffffffffffffffffffffffffffffffffffffffffffffffffffffffff1916815260200190815260200160002060009054906101000a900460ff169050919050565b606060068054600181600116156101000203166002900480601f016020809104026020016040519081016040528092919081815260200182805460018160011615610100020316600290048015610c935780601f10610c6857610100808354040283529160200191610c93565b820191906000526020600020905b815481529060010190602001808311610c7657829003601f168201915b5050505050905090565b6000610ca8826119a8565b610cfd576040517f08c379a000000000000000000000000000000000000000000000000000000000815260040180806020018281038252602c815260200180613298602c913960400191505060405180910390fd5b6004600083815260200190815260200160002060009054906101000a900473ffffffffffffffffffffffffffffffffffffffff169050919050565b6000610d43826110ac565b90508073ffffffffffffffffffffffffffffffffffffffff168373ffffffffffffffffffffffffffffffffffffffff161415610dca576040517f08c379a000000000000000000000000000000000000000000000000000000000815260040180806020018281038252602181526020018061331c6021913960400191505060405180910390fd5b8073ffffffffffffffffffffffffffffffffffffffff16610de96119c5565b73ffffffffffffffffffffffffffffffffffffffff161480610e185750610e1781610e126119c5565b611914565b5b610e6d576040517f08c379a00000000000000000000000000000000000000000000000000000000081526004018080602001828103825260388152602001806131ca6038913960400191505060405180910390fd5b610e7783836119cd565b505050565b6000610e886002611a86565b905090565b610e9e610e986119c5565b82611a9b565b610ef3576040517f08c379a000000000000000000000000000000000000000000000000000000000815260040180806020018281038252603181526020018061333d6031913960400191505060405180910390fd5b610efe838383611b8f565b505050565b6000610f5682600160008673ffffffffffffffffffffffffffffffffffffffff1673ffffffffffffffffffffffffffffffffffffffff168152602001908152602001600020611dd290919063ffffffff16565b905092915050565b600080610f986004610f8a670de0b6b3a7640000610f7c600a611ded565b611dfb90919063ffffffff16565b611e8190919063ffffffff16565b905080341015610fa757600080fd5b600c60009054906101000a900473ffffffffffffffffffffffffffffffffffffffff1673ffffffffffffffffffffffffffffffffffffffff166108fc349081150290604051600060405180830381858888f1935050505015801561100f573d6000803e3d6000fd5b5061101a600a611f0a565b6000611026600a611ded565b90506110328482611f20565b807f07883703ed0e86588a40d76551c92f8a4b329e3bf19765e0e6749473c1a8466560405160405180910390a28092505050919050565b611084838383604051806020016040528060008152506114c5565b505050565b6000806110a083600261211490919063ffffffff16565b50905080915050919050565b60006110dc8260405180606001604052806029815260200161322c6029913960026121459092919063ffffffff16565b9050919050565b60006110ef600a611ded565b905090565b606060098054600181600116156101000203166002900480601f01602080910402602001604051908101604052809291908181526020018280546001816001161561010002031660029004801561118c5780601f106111615761010080835404028352916020019161118c565b820191906000526020600020905b81548152906001019060200180831161116f57829003601f168201915b5050505050905090565b60008073ffffffffffffffffffffffffffffffffffffffff168273ffffffffffffffffffffffffffffffffffffffff16141561121d576040517f08c379a000000000000000000000000000000000000000000000000000000000815260040180806020018281038252602a815260200180613202602a913960400191505060405180910390fd5b611264600160008473ffffffffffffffffffffffffffffffffffffffff1673ffffffffffffffffffffffffffffffffffffffff168152602001908152602001600020612165565b9050919050565b606060078054600181600116156101000203166002900480601f0160208091040260200160405190810160405280929190818152602001828054600181600116156101000203166002900480156113035780601f106112d857610100808354040283529160200191611303565b820191906000526020600020905b8154815290600101906020018083116112e657829003601f168201915b5050505050905090565b6113156119c5565b73ffffffffffffffffffffffffffffffffffffffff168273ffffffffffffffffffffffffffffffffffffffff1614156113b6576040517f08c379a00000000000000000000000000000000000000000000000000000000081526004018080602001828103825260198152602001807f4552433732313a20617070726f766520746f2063616c6c65720000000000000081525060200191505060405180910390fd5b80600560006113c36119c5565b73ffffffffffffffffffffffffffffffffffffffff1673ffffffffffffffffffffffffffffffffffffffff16815260200190815260200160002060008473ffffffffffffffffffffffffffffffffffffffff1673ffffffffffffffffffffffffffffffffffffffff16815260200190815260200160002060006101000a81548160ff0219169083151502179055508173ffffffffffffffffffffffffffffffffffffffff166114706119c5565b73ffffffffffffffffffffffffffffffffffffffff167f17307eab39ab6107e8899845ad3d59bd9653f200f220920489ca2b5937696c3183604051808215151515815260200191505060405180910390a35050565b6114d66114d06119c5565b83611a9b565b61152b576040517f08c379a000000000000000000000000000000000000000000000000000000000815260040180806020018281038252603181526020018061333d6031913960400191505060405180910390fd5b6115378484848461217a565b50505050565b611546826110ac565b73ffffffffffffffffffffffffffffffffffffffff163373ffffffffffffffffffffffffffffffffffffffff161461157d57600080fd5b80600b9080519060200190611593929190613012565b5061159d826121ec565b5050565b6060600b8054600181600116156101000203166002900480601f0160208091040260200160405190810160405280929190818152602001828054600181600116156101000203166002900480156116395780601f1061160e57610100808354040283529160200191611639565b820191906000526020600020905b81548152906001019060200180831161161c57829003601f168201915b5050505050905090565b606061164e826119a8565b6116a3576040517f08c379a000000000000000000000000000000000000000000000000000000000815260040180806020018281038252602f8152602001806132ed602f913960400191505060405180910390fd5b6060600860008481526020019081526020016000208054600181600116156101000203166002900480601f01602080910402602001604051908101604052809291908181526020018280546001816001161561010002031660029004801561174c5780601f106117215761010080835404028352916020019161174c565b820191906000526020600020905b81548152906001019060200180831161172f57829003601f168201915b50505050509050606061175d6110f4565b905060008151141561177357819250505061190f565b6000825111156118445780826040516020018083805190602001908083835b602083106117b55780518252602082019150602081019050602083039250611792565b6001836020036101000a03801982511681845116808217855250505050505090500182805190602001908083835b6020831061180657805182526020820191506020810190506020830392506117e3565b6001836020036101000a038019825116818451168082178552505050505050905001925050506040516020818303038152906040529250505061190f565b8061184e85612326565b6040516020018083805190602001908083835b602083106118845780518252602082019150602081019050602083039250611861565b6001836020036101000a03801982511681845116808217855250505050505090500182805190602001908083835b602083106118d557805182526020820191506020810190506020830392506118b2565b6001836020036101000a03801982511681845116808217855250505050505090500192505050604051602081830303815290604052925050505b919050565b6000600560008473ffffffffffffffffffffffffffffffffffffffff1673ffffffffffffffffffffffffffffffffffffffff16815260200190815260200160002060008373ffffffffffffffffffffffffffffffffffffffff1673ffffffffffffffffffffffffffffffffffffffff16815260200190815260200160002060009054906101000a900460ff16905092915050565b60006119be82600261247590919063ffffffff16565b9050919050565b600033905090565b816004600083815260200190815260200160002060006101000a81548173ffffffffffffffffffffffffffffffffffffffff021916908373ffffffffffffffffffffffffffffffffffffffff160217905550808273ffffffffffffffffffffffffffffffffffffffff16611a40836110ac565b73ffffffffffffffffffffffffffffffffffffffff167f8c5be1e5ebec7d5bd14f71427d1e84f3dd0314c0f7b2291e5b200ac8c7c3b92560405160405180910390a45050565b6000611a948260000161248f565b9050919050565b6000611aa6826119a8565b611afb576040517f08c379a000000000000000000000000000000000000000000000000000000000815260040180806020018281038252602c81526020018061319e602c913960400191505060405180910390fd5b6000611b06836110ac565b90508073ffffffffffffffffffffffffffffffffffffffff168473ffffffffffffffffffffffffffffffffffffffff161480611b7557508373ffffffffffffffffffffffffffffffffffffffff16611b5d84610c9d565b73ffffffffffffffffffffffffffffffffffffffff16145b80611b865750611b858185611914565b5b91505092915050565b8273ffffffffffffffffffffffffffffffffffffffff16611baf826110ac565b73ffffffffffffffffffffffffffffffffffffffff1614611c1b576040517f08c379a00000000000000000000000000000000000000000000000000000000081526004018080602001828103825260298152602001806132c46029913960400191505060405180910390fd5b600073ffffffffffffffffffffffffffffffffffffffff168273ffffffffffffffffffffffffffffffffffffffff161415611ca1576040517f08c379a00000000000000000000000000000000000000000000000000000000081526004018080602001828103825260248152602001806131546024913960400191505060405180910390fd5b611cac8383836124a0565b611cb76000826119cd565b611d0881600160008673ffffffffffffffffffffffffffffffffffffffff1673ffffffffffffffffffffffffffffffffffffffff1681526020019081526020016000206124a590919063ffffffff16565b50611d5a81600160008573ffffffffffffffffffffffffffffffffffffffff1673ffffffffffffffffffffffffffffffffffffffff1681526020019081526020016000206124bf90919063ffffffff16565b50611d71818360026124d99092919063ffffffff16565b50808273ffffffffffffffffffffffffffffffffffffffff168473ffffffffffffffffffffffffffffffffffffffff167fddf252ad1be2c89b69c2b068fc378daa952ba7f163c4a11628f55a4df523b3ef60405160405180910390a4505050565b6000611de1836000018361250e565b60019004905092915050565b600081600001549050919050565b600080831415611e0e5760009050611e7b565b6000828402905082848281611e1f57fe5b0414611e76576040517f08c379a00000000000000000000000000000000000000000000000000000000081526004018080602001828103825260218152602001806132776021913960400191505060405180910390fd5b809150505b92915050565b6000808211611ef8576040517f08c379a000000000000000000000000000000000000000000000000000000000815260040180806020018281038252601a8152602001807f536166654d6174683a206469766973696f6e206279207a65726f00000000000081525060200191505060405180910390fd5b818381611f0157fe5b04905092915050565b6001816000016000828254019250508190555050565b600073ffffffffffffffffffffffffffffffffffffffff168273ffffffffffffffffffffffffffffffffffffffff161415611fc3576040517f08c379a00000000000000000000000000000000000000000000000000000000081526004018080602001828103825260208152602001807f4552433732313a206d696e7420746f20746865207a65726f206164647265737381525060200191505060405180910390fd5b611fcc816119a8565b1561203f576040517f08c379a000000000000000000000000000000000000000000000000000000000815260040180806020018281038252601c8152602001807f4552433732313a20746f6b656e20616c7265616479206d696e7465640000000081525060200191505060405180910390fd5b61204b600083836124a0565b61209c81600160008573ffffffffffffffffffffffffffffffffffffffff1673ffffffffffffffffffffffffffffffffffffffff1681526020019081526020016000206124bf90919063ffffffff16565b506120b3818360026124d99092919063ffffffff16565b50808273ffffffffffffffffffffffffffffffffffffffff16600073ffffffffffffffffffffffffffffffffffffffff167fddf252ad1be2c89b69c2b068fc378daa952ba7f163c4a11628f55a4df523b3ef60405160405180910390a45050565b6000806000806121278660000186612591565b91509150816001900481600190048090509350935050509250929050565b600061215884600001846001028461262a565b6001900490509392505050565b600061217382600001612720565b9050919050565b612185848484611b8f565b61219184848484612731565b6121e6576040517f08c379a00000000000000000000000000000000000000000000000000000000081526004018080602001828103825260328152602001806131226032913960400191505060405180910390fd5b50505050565b60006121f7826110ac565b9050612205816000846124a0565b6122106000836119cd565b6000600860008481526020019081526020016000208054600181600116156101000203166002900490501461225f5760086000838152602001908152602001600020600061225e9190613092565b5b6122b082600160008473ffffffffffffffffffffffffffffffffffffffff1673ffffffffffffffffffffffffffffffffffffffff1681526020019081526020016000206124a590919063ffffffff16565b506122c58260026129ae90919063ffffffff16565b5081600073ffffffffffffffffffffffffffffffffffffffff168273ffffffffffffffffffffffffffffffffffffffff167fddf252ad1be2c89b69c2b068fc378daa952ba7f163c4a11628f55a4df523b3ef60405160405180910390a45050565b6060600082141561236e576040518060400160405280600181526020017f30000000000000000000000000000000000000000000000000000000000000008152509050612470565b600082905060005b60008214612398578080600101915050600a828161239057fe5b049150612376565b6060816040519080825280601f01601f1916602001820160405280156123cd5781602001600182028038833980820191505090505b50905060006001830390508593505b6000841461246857600a84816123ee57fe5b066030017f0100000000000000000000000000000000000000000000000000000000000000028282806001900393508151811061242757fe5b60200101907effffffffffffffffffffffffffffffffffffffffffffffffffffffffffffff1916908160001a905350600a848161246057fe5b0493506123dc565b819450505050505b919050565b600061248783600001836001026129c8565b905092915050565b600081600001805490509050919050565b505050565b60006124b783600001836001026129eb565b905092915050565b60006124d18360000183600102612ad3565b905092915050565b600061250584600001846001028473ffffffffffffffffffffffffffffffffffffffff16600102612b43565b90509392505050565b60008183600001805490501161256f576040517f08c379a00000000000000000000000000000000000000000000000000000000081526004018080602001828103825260228152602001806131006022913960400191505060405180910390fd5b82600001828154811061257e57fe5b9060005260206000200154905092915050565b600080828460000180549050116125f3576040517f08c379a00000000000000000000000000000000000000000000000000000000081526004018080602001828103825260228152602001806132556022913960400191505060405180910390fd5b600084600001848154811061260457fe5b906000526020600020906002020190508060000154816001015492509250509250929050565b600080846001016000858152602001908152602001600020549050600081141583906126f1576040517f08c379a00000000000000000000000000000000000000000000000000000000081526004018080602001828103825283818151815260200191508051906020019080838360005b838110156126b657808201518184015260208101905061269b565b50505050905090810190601f1680156126e35780820380516001836020036101000a031916815260200191505b509250505060405180910390fd5b5084600001600182038154811061270457fe5b9060005260206000209060020201600101549150509392505050565b600081600001805490509050919050565b60006127528473ffffffffffffffffffffffffffffffffffffffff16612c1f565b61275f57600190506129a6565b606061291163150b7a027c0100000000000000000000000000000000000000000000000000000000026127906119c5565b888787604051602401808573ffffffffffffffffffffffffffffffffffffffff1673ffffffffffffffffffffffffffffffffffffffff1681526020018473ffffffffffffffffffffffffffffffffffffffff1673ffffffffffffffffffffffffffffffffffffffff16815260200183815260200180602001828103825283818151815260200191508051906020019080838360005b83811015612840578082015181840152602081019050612825565b50505050905090810190601f16801561286d5780820380516001836020036101000a031916815260200191505b5095505050505050604051602081830303815290604052907bffffffffffffffffffffffffffffffffffffffffffffffffffffffff19166020820180517bffffffffffffffffffffffffffffffffffffffffffffffffffffffff8381831617835250505050604051806060016040528060328152602001613122603291398773ffffffffffffffffffffffffffffffffffffffff16612c329092919063ffffffff16565b9050600081806020019051602081101561292a57600080fd5b8101908080519060200190929190505050905063150b7a027c0100000000000000000000000000000000000000000000000000000000027bffffffffffffffffffffffffffffffffffffffffffffffffffffffff1916817bffffffffffffffffffffffffffffffffffffffffffffffffffffffff191614925050505b949350505050565b60006129c08360000183600102612c4a565b905092915050565b600080836001016000848152602001908152602001600020541415905092915050565b60008083600101600084815260200190815260200160002054905060008114612ac75760006001820390506000600186600001805490500390506000866000018281548110612a3657fe5b9060005260206000200154905080876000018481548110612a5357fe5b9060005260206000200181905550600183018760010160008381526020019081526020016000208190555086600001805480612a8b57fe5b60019003818190600052602060002001600090559055866001016000878152602001908152602001600020600090556001945050505050612acd565b60009150505b92915050565b6000612adf8383612d63565b612b38578260000182908060018154018082558091505060019003906000526020600020016000909190919091505582600001805490508360010160008481526020019081526020016000208190555060019050612b3d565b600090505b92915050565b6000808460010160008581526020019081526020016000205490506000811415612bea57846000016040518060400160405280868152602001858152509080600181540180825580915050600190039060005260206000209060020201600090919091909150600082015181600001556020820151816001015550508460000180549050856001016000868152602001908152602001600020819055506001915050612c18565b82856000016001830381548110612bfd57fe5b90600052602060002090600202016001018190555060009150505b9392505050565b600080823b905060008111915050919050565b6060612c418484600085612d86565b90509392505050565b60008083600101600084815260200190815260200160002054905060008114612d575760006001820390506000600186600001805490500390506000866000018281548110612c9557fe5b9060005260206000209060020201905080876000018481548110612cb557fe5b9060005260206000209060020201600082015481600001556001820154816001015590505060018301876001016000836000015481526020019081526020016000208190555086600001805480612d0857fe5b6001900381819060005260206000209060020201600080820160009055600182016000905550509055866001016000878152602001908152602001600020600090556001945050505050612d5d565b60009150505b92915050565b600080836001016000848152602001908152602001600020541415905092915050565b6060823073ffffffffffffffffffffffffffffffffffffffff16311015612df8576040517f08c379a00000000000000000000000000000000000000000000000000000000081526004018080602001828103825260268152602001806131786026913960400191505060405180910390fd5b612e0185612c1f565b612e73576040517f08c379a000000000000000000000000000000000000000000000000000000000815260040180806020018281038252601d8152602001807f416464726573733a2063616c6c20746f206e6f6e2d636f6e747261637400000081525060200191505060405180910390fd5b600060608673ffffffffffffffffffffffffffffffffffffffff1685876040518082805190602001908083835b60208310612ec35780518252602082019150602081019050602083039250612ea0565b6001836020036101000a03801982511681845116808217855250505050505090500191505060006040518083038185875af1925050503d8060008114612f25576040519150601f19603f3d011682016040523d82523d6000602084013e612f2a565b606091505b5091509150612f3a828286612f46565b92505050949350505050565b60608315612f565782905061300b565b600083511115612f695782518084602001fd5b816040517f08c379a00000000000000000000000000000000000000000000000000000000081526004018080602001828103825283818151815260200191508051906020019080838360005b83811015612fd0578082015181840152602081019050612fb5565b50505050905090810190601f168015612ffd5780820380516001836020036101000a031916815260200191505b509250505060405180910390fd5b9392505050565b828054600181600116156101000203166002900490600052602060002090601f016020900481019282601f1061305357805160ff1916838001178555613081565b82800160010185558215613081579182015b82811115613080578251825591602001919060010190613065565b5b50905061308e91906130da565b5090565b50805460018160011615610100020316600290046000825580601f106130b857506130d7565b601f0160209004906000526020600020908101906130d691906130da565b5b50565b6130fc91905b808211156130f85760008160009055506001016130e0565b5090565b9056fe456e756d657261626c655365743a20696e646578206f7574206f6620626f756e64734552433732313a207472616e7366657220746f206e6f6e20455243373231526563656976657220696d706c656d656e7465724552433732313a207472616e7366657220746f20746865207a65726f2061646472657373416464726573733a20696e73756666696369656e742062616c616e636520666f722063616c6c4552433732313a206f70657261746f7220717565727920666f72206e6f6e6578697374656e7420746f6b656e4552433732313a20617070726f76652063616c6c6572206973206e6f74206f776e6572206e6f7220617070726f76656420666f7220616c6c4552433732313a2062616c616e636520717565727920666f7220746865207a65726f20616464726573734552433732313a206f776e657220717565727920666f72206e6f6e6578697374656e7420746f6b656e456e756d657261626c654d61703a20696e646578206f7574206f6620626f756e6473536166654d6174683a206d756c7469706c69636174696f6e206f766572666c6f774552433732313a20617070726f76656420717565727920666f72206e6f6e6578697374656e7420746f6b656e4552433732313a207472616e73666572206f6620746f6b656e2074686174206973206e6f74206f776e4552433732314d657461646174613a2055524920717565727920666f72206e6f6e6578697374656e7420746f6b656e4552433732313a20617070726f76616c20746f2063757272656e74206f776e65724552433732313a207472616e736665722063616c6c6572206973206e6f74206f776e6572206e6f7220617070726f766564a26469706673582212203352c514308835d95f2087d3f665f547f0e28ca9e2a3ac1216bf1d342db5a39064736f6c63430006020033",
  "source": "pragma solidity ^0.6.2;\r\nimport \"@openzeppelin/contracts/token/ERC721/ERC721.sol\";\r\nimport \"@openzeppelin/contracts/utils/Counters.sol\";\r\nimport \"@openzeppelin/contracts/math/SafeMath.sol\";\r\n\r\ncontract FuckoPops is ERC721 {\r\n    using Counters for Counters.Counter;\r\n    using SafeMath for uint256;\r\n    event Mint(uint256 indexed tokenId);\r\n    Counters.Counter private _tokenIds;\r\n    string private _generativeCodeHash;\r\n    address payable private mainFuckoGuy;\r\n\r\n    constructor(address payable guy, string memory generativeCodeHash) public ERC721(\"FuckoPop\", \"FUCK\") {\r\n        mainFuckoGuy = guy;\r\n        _generativeCodeHash = generativeCodeHash;\r\n    }\r\n\r\n    function mintFucko(address recipient) public payable returns (uint256) {\r\n        uint256 minValue = _tokenIds.current().mul(1000000000000000000).div(4);\r\n        require(msg.value >= minValue);\r\n        mainFuckoGuy.transfer(msg.value);\r\n        // require(sent, \"Failed to send Ether\");\r\n        //   require()\r\n        _tokenIds.increment();\r\n        uint256 newItemId = _tokenIds.current();\r\n        _mint(recipient, newItemId);\r\n        emit Mint(newItemId);\r\n        return newItemId;\r\n    }\r\n\r\n    function sacrificeFucko(\r\n        uint256 fuckoId,\r\n        string memory newGenerativeCodeHash\r\n    ) public {\r\n        require(msg.sender == ownerOf(fuckoId));\r\n        _generativeCodeHash = newGenerativeCodeHash;\r\n        _burn(fuckoId);\r\n    }\r\n\r\n    function lastMintedTokenId() public view virtual returns (uint256) {\r\n        return _tokenIds.current();\r\n    }\r\n\r\n    function currentGenerativeCodeHash() public view virtual returns (string memory) {\r\n        return _generativeCodeHash;\r\n    }\r\n}\r\n",
  "sourcePath": "C:/Users/Trimbo/fucko-pops/fucko-contracts/contracts/FuckoPops.sol",
  "compiler": {
    "name": "solc",
    "version": "0.6.2+commit.bacdbe57.Emscripten.clang"
  },
  "schemaVersion": "3.3.4",
  "updatedAt": "2021-02-25T00:13:23.611Z",
  "networkType": "ethereum",
  "devdoc": {
    "methods": {
      "approve(address,uint256)": {
        "details": "See {IERC721-approve}."
      },
      "balanceOf(address)": {
        "details": "See {IERC721-balanceOf}."
      },
      "baseURI()": {
        "details": "Returns the base URI set via {_setBaseURI}. This will be automatically added as a prefix in {tokenURI} to each token's URI, or to the token ID if no specific URI is set for that token ID."
      },
      "getApproved(uint256)": {
        "details": "See {IERC721-getApproved}."
      },
      "isApprovedForAll(address,address)": {
        "details": "See {IERC721-isApprovedForAll}."
      },
      "name()": {
        "details": "See {IERC721Metadata-name}."
      },
      "ownerOf(uint256)": {
        "details": "See {IERC721-ownerOf}."
      },
      "safeTransferFrom(address,address,uint256)": {
        "details": "See {IERC721-safeTransferFrom}."
      },
      "safeTransferFrom(address,address,uint256,bytes)": {
        "details": "See {IERC721-safeTransferFrom}."
      },
      "setApprovalForAll(address,bool)": {
        "details": "See {IERC721-setApprovalForAll}."
      },
      "supportsInterface(bytes4)": {
        "details": "See {IERC165-supportsInterface}.     * Time complexity O(1), guaranteed to always use less than 30 000 gas."
      },
      "symbol()": {
        "details": "See {IERC721Metadata-symbol}."
      },
      "tokenByIndex(uint256)": {
        "details": "See {IERC721Enumerable-tokenByIndex}."
      },
      "tokenOfOwnerByIndex(address,uint256)": {
        "details": "See {IERC721Enumerable-tokenOfOwnerByIndex}."
      },
      "tokenURI(uint256)": {
        "details": "See {IERC721Metadata-tokenURI}."
      },
      "totalSupply()": {
        "details": "See {IERC721Enumerable-totalSupply}."
      },
      "transferFrom(address,address,uint256)": {
        "details": "See {IERC721-transferFrom}."
      }
    }
  },
  "userdoc": {
    "methods": {}
  }
}