{
  "contractName": "FuckoPops",
  "abi": [
    {
      "inputs": [
        {
          "internalType": "address payable",
          "name": "guy",
          "type": "address"
        },
        {
          "internalType": "string",
          "name": "generativeCodeHash",
          "type": "string"
        }
      ],
      "stateMutability": "nonpayable",
      "type": "constructor"
    },
    {
      "anonymous": false,
      "inputs": [
        {
          "indexed": true,
          "internalType": "address",
          "name": "owner",
          "type": "address"
        },
        {
          "indexed": true,
          "internalType": "address",
          "name": "approved",
          "type": "address"
        },
        {
          "indexed": true,
          "internalType": "uint256",
          "name": "tokenId",
          "type": "uint256"
        }
      ],
      "name": "Approval",
      "type": "event"
    },
    {
      "anonymous": false,
      "inputs": [
        {
          "indexed": true,
          "internalType": "address",
          "name": "owner",
          "type": "address"
        },
        {
          "indexed": true,
          "internalType": "address",
          "name": "operator",
          "type": "address"
        },
        {
          "indexed": false,
          "internalType": "bool",
          "name": "approved",
          "type": "bool"
        }
      ],
      "name": "ApprovalForAll",
      "type": "event"
    },
    {
      "anonymous": false,
      "inputs": [
        {
          "indexed": true,
          "internalType": "uint256",
          "name": "tokenId",
          "type": "uint256"
        },
        {
          "indexed": false,
          "internalType": "uint256",
          "name": "salePrice",
          "type": "uint256"
        },
        {
          "indexed": false,
          "internalType": "string",
          "name": "codeHash",
          "type": "string"
        }
      ],
      "name": "Mint",
      "type": "event"
    },
    {
      "anonymous": false,
      "inputs": [
        {
          "indexed": true,
          "internalType": "address",
          "name": "from",
          "type": "address"
        },
        {
          "indexed": true,
          "internalType": "address",
          "name": "to",
          "type": "address"
        },
        {
          "indexed": true,
          "internalType": "uint256",
          "name": "tokenId",
          "type": "uint256"
        }
      ],
      "name": "Transfer",
      "type": "event"
    },
    {
      "inputs": [
        {
          "internalType": "address",
          "name": "to",
          "type": "address"
        },
        {
          "internalType": "uint256",
          "name": "tokenId",
          "type": "uint256"
        }
      ],
      "name": "approve",
      "outputs": [],
      "stateMutability": "nonpayable",
      "type": "function"
    },
    {
      "inputs": [
        {
          "internalType": "address",
          "name": "owner",
          "type": "address"
        }
      ],
      "name": "balanceOf",
      "outputs": [
        {
          "internalType": "uint256",
          "name": "",
          "type": "uint256"
        }
      ],
      "stateMutability": "view",
      "type": "function",
      "constant": true
    },
    {
      "inputs": [],
      "name": "baseURI",
      "outputs": [
        {
          "internalType": "string",
          "name": "",
          "type": "string"
        }
      ],
      "stateMutability": "view",
      "type": "function",
      "constant": true
    },
    {
      "inputs": [
        {
          "internalType": "uint256",
          "name": "tokenId",
          "type": "uint256"
        }
      ],
      "name": "getApproved",
      "outputs": [
        {
          "internalType": "address",
          "name": "",
          "type": "address"
        }
      ],
      "stateMutability": "view",
      "type": "function",
      "constant": true
    },
    {
      "inputs": [
        {
          "internalType": "address",
          "name": "owner",
          "type": "address"
        },
        {
          "internalType": "address",
          "name": "operator",
          "type": "address"
        }
      ],
      "name": "isApprovedForAll",
      "outputs": [
        {
          "internalType": "bool",
          "name": "",
          "type": "bool"
        }
      ],
      "stateMutability": "view",
      "type": "function",
      "constant": true
    },
    {
      "inputs": [],
      "name": "name",
      "outputs": [
        {
          "internalType": "string",
          "name": "",
          "type": "string"
        }
      ],
      "stateMutability": "view",
      "type": "function",
      "constant": true
    },
    {
      "inputs": [
        {
          "internalType": "uint256",
          "name": "tokenId",
          "type": "uint256"
        }
      ],
      "name": "ownerOf",
      "outputs": [
        {
          "internalType": "address",
          "name": "",
          "type": "address"
        }
      ],
      "stateMutability": "view",
      "type": "function",
      "constant": true
    },
    {
      "inputs": [
        {
          "internalType": "address",
          "name": "from",
          "type": "address"
        },
        {
          "internalType": "address",
          "name": "to",
          "type": "address"
        },
        {
          "internalType": "uint256",
          "name": "tokenId",
          "type": "uint256"
        }
      ],
      "name": "safeTransferFrom",
      "outputs": [],
      "stateMutability": "nonpayable",
      "type": "function"
    },
    {
      "inputs": [
        {
          "internalType": "address",
          "name": "from",
          "type": "address"
        },
        {
          "internalType": "address",
          "name": "to",
          "type": "address"
        },
        {
          "internalType": "uint256",
          "name": "tokenId",
          "type": "uint256"
        },
        {
          "internalType": "bytes",
          "name": "_data",
          "type": "bytes"
        }
      ],
      "name": "safeTransferFrom",
      "outputs": [],
      "stateMutability": "nonpayable",
      "type": "function"
    },
    {
      "inputs": [
        {
          "internalType": "address",
          "name": "operator",
          "type": "address"
        },
        {
          "internalType": "bool",
          "name": "approved",
          "type": "bool"
        }
      ],
      "name": "setApprovalForAll",
      "outputs": [],
      "stateMutability": "nonpayable",
      "type": "function"
    },
    {
      "inputs": [
        {
          "internalType": "bytes4",
          "name": "interfaceId",
          "type": "bytes4"
        }
      ],
      "name": "supportsInterface",
      "outputs": [
        {
          "internalType": "bool",
          "name": "",
          "type": "bool"
        }
      ],
      "stateMutability": "view",
      "type": "function",
      "constant": true
    },
    {
      "inputs": [],
      "name": "symbol",
      "outputs": [
        {
          "internalType": "string",
          "name": "",
          "type": "string"
        }
      ],
      "stateMutability": "view",
      "type": "function",
      "constant": true
    },
    {
      "inputs": [
        {
          "internalType": "uint256",
          "name": "index",
          "type": "uint256"
        }
      ],
      "name": "tokenByIndex",
      "outputs": [
        {
          "internalType": "uint256",
          "name": "",
          "type": "uint256"
        }
      ],
      "stateMutability": "view",
      "type": "function",
      "constant": true
    },
    {
      "inputs": [
        {
          "internalType": "address",
          "name": "owner",
          "type": "address"
        },
        {
          "internalType": "uint256",
          "name": "index",
          "type": "uint256"
        }
      ],
      "name": "tokenOfOwnerByIndex",
      "outputs": [
        {
          "internalType": "uint256",
          "name": "",
          "type": "uint256"
        }
      ],
      "stateMutability": "view",
      "type": "function",
      "constant": true
    },
    {
      "inputs": [
        {
          "internalType": "uint256",
          "name": "tokenId",
          "type": "uint256"
        }
      ],
      "name": "tokenURI",
      "outputs": [
        {
          "internalType": "string",
          "name": "",
          "type": "string"
        }
      ],
      "stateMutability": "view",
      "type": "function",
      "constant": true
    },
    {
      "inputs": [],
      "name": "totalSupply",
      "outputs": [
        {
          "internalType": "uint256",
          "name": "",
          "type": "uint256"
        }
      ],
      "stateMutability": "view",
      "type": "function",
      "constant": true
    },
    {
      "inputs": [
        {
          "internalType": "address",
          "name": "from",
          "type": "address"
        },
        {
          "internalType": "address",
          "name": "to",
          "type": "address"
        },
        {
          "internalType": "uint256",
          "name": "tokenId",
          "type": "uint256"
        }
      ],
      "name": "transferFrom",
      "outputs": [],
      "stateMutability": "nonpayable",
      "type": "function"
    },
    {
      "inputs": [
        {
          "internalType": "address",
          "name": "recipient",
          "type": "address"
        }
      ],
      "name": "mintFucko",
      "outputs": [
        {
          "internalType": "uint256",
          "name": "",
          "type": "uint256"
        }
      ],
      "stateMutability": "payable",
      "type": "function",
      "payable": true
    },
    {
      "inputs": [
        {
          "internalType": "uint256",
          "name": "fuckoId",
          "type": "uint256"
        },
        {
          "internalType": "string",
          "name": "newGenerativeCodeHash",
          "type": "string"
        }
      ],
      "name": "sacrificeFucko",
      "outputs": [],
      "stateMutability": "nonpayable",
      "type": "function"
    },
    {
      "inputs": [],
      "name": "lastMintedTokenId",
      "outputs": [
        {
          "internalType": "uint256",
          "name": "",
          "type": "uint256"
        }
      ],
      "stateMutability": "view",
      "type": "function",
      "constant": true
    },
    {
      "inputs": [],
      "name": "lastSalePrice",
      "outputs": [
        {
          "internalType": "uint256",
          "name": "",
          "type": "uint256"
        }
      ],
      "stateMutability": "view",
      "type": "function",
      "constant": true
    },
    {
      "inputs": [],
      "name": "lastSaleTime",
      "outputs": [
        {
          "internalType": "uint256",
          "name": "",
          "type": "uint256"
        }
      ],
      "stateMutability": "view",
      "type": "function",
      "constant": true
    },
    {
      "inputs": [],
      "name": "currentGenerativeCodeHash",
      "outputs": [
        {
          "internalType": "string",
          "name": "",
          "type": "string"
        }
      ],
      "stateMutability": "view",
      "type": "function",
      "constant": true
    }
  ],
  "bytecode": "0x60806040523480156200001157600080fd5b5060405162003c0f38038062003c0f833981810160405260408110156200003757600080fd5b8101908080519060200190929190805160405193929190846401000000008211156200006257600080fd5b838201915060208201858111156200007957600080fd5b82518660018202830111640100000000821117156200009757600080fd5b8083526020830192505050908051906020019080838360005b83811015620000cd578082015181840152602081019050620000b0565b50505050905090810190601f168015620000fb5780820380516001836020036101000a031916815260200191505b506040525050506040518060400160405280600881526020017f4675636b6f506f700000000000000000000000000000000000000000000000008152506040518060400160405280600481526020017f4655434b00000000000000000000000000000000000000000000000000000000815250620001ab6301ffc9a77c0100000000000000000000000000000000000000000000000000000000026200030e640100000000026401000000009004565b8160069080519060200190620001c392919062000433565b508060079080519060200190620001dc92919062000433565b506200021a6380ac58cd7c0100000000000000000000000000000000000000000000000000000000026200030e640100000000026401000000009004565b62000257635b5e139f7c0100000000000000000000000000000000000000000000000000000000026200030e640100000000026401000000009004565b6200029463780e9d637c0100000000000000000000000000000000000000000000000000000000026200030e640100000000026401000000009004565b505081600c60006101000a81548173ffffffffffffffffffffffffffffffffffffffff021916908373ffffffffffffffffffffffffffffffffffffffff16021790555080600b9080519060200190620002ef92919062000433565b50670de0b6b3a7640000600d8190555042600e819055505050620004e2565b63ffffffff7c010000000000000000000000000000000000000000000000000000000002817bffffffffffffffffffffffffffffffffffffffffffffffffffffffff19161415620003c7576040517f08c379a000000000000000000000000000000000000000000000000000000000815260040180806020018281038252601c8152602001807f4552433136353a20696e76616c696420696e746572666163652069640000000081525060200191505060405180910390fd5b6001600080837bffffffffffffffffffffffffffffffffffffffffffffffffffffffff19167bffffffffffffffffffffffffffffffffffffffffffffffffffffffff1916815260200190815260200160002060006101000a81548160ff02191690831515021790555050565b828054600181600116156101000203166002900490600052602060002090601f016020900481019282601f106200047657805160ff1916838001178555620004a7565b82800160010185558215620004a7579182015b82811115620004a657825182559160200191906001019062000489565b5b509050620004b69190620004ba565b5090565b620004df91905b80821115620004db576000816000905550600101620004c1565b5090565b90565b61371d80620004f26000396000f3fe60806040526004361061015d576000357c0100000000000000000000000000000000000000000000000000000000900480636508b10a116100d3578063b88d4fde1161008c578063b88d4fde14610824578063bfb15b0714610936578063c35ee4aa14610a08578063c87b56dd14610a98578063e985e9c514610b4c578063f897c99814610bd55761015d565b80636508b10a146105ec5780636c0360eb1461061757806370a08231146106a757806386f5960f1461070c57806395d89b4114610737578063a22cb465146107c75761015d565b806323b872dd1161012557806323b872dd146103655780632f745c59146103e05780633cd7a1f81461044f57806342842e0e146104a75780634f6ccce7146105225780636352211e146105715761015d565b806301ffc9a71461016257806306fdde03146101d4578063081812fc14610264578063095ea7b3146102df57806318160ddd1461033a575b600080fd5b34801561016e57600080fd5b506101ba6004803603602081101561018557600080fd5b8101908080357bffffffffffffffffffffffffffffffffffffffffffffffffffffffff19169060200190929190505050610c00565b604051808215151515815260200191505060405180910390f35b3480156101e057600080fd5b506101e9610c67565b6040518080602001828103825283818151815260200191508051906020019080838360005b8381101561022957808201518184015260208101905061020e565b50505050905090810190601f1680156102565780820380516001836020036101000a031916815260200191505b509250505060405180910390f35b34801561027057600080fd5b5061029d6004803603602081101561028757600080fd5b8101908080359060200190929190505050610d09565b604051808273ffffffffffffffffffffffffffffffffffffffff1673ffffffffffffffffffffffffffffffffffffffff16815260200191505060405180910390f35b3480156102eb57600080fd5b506103386004803603604081101561030257600080fd5b81019080803573ffffffffffffffffffffffffffffffffffffffff16906020019092919080359060200190929190505050610da4565b005b34801561034657600080fd5b5061034f610ee8565b6040518082815260200191505060405180910390f35b34801561037157600080fd5b506103de6004803603606081101561038857600080fd5b81019080803573ffffffffffffffffffffffffffffffffffffffff169060200190929190803573ffffffffffffffffffffffffffffffffffffffff16906020019092919080359060200190929190505050610ef9565b005b3480156103ec57600080fd5b506104396004803603604081101561040357600080fd5b81019080803573ffffffffffffffffffffffffffffffffffffffff16906020019092919080359060200190929190505050610f6f565b6040518082815260200191505060405180910390f35b6104916004803603602081101561046557600080fd5b81019080803573ffffffffffffffffffffffffffffffffffffffff169060200190929190505050610fca565b6040518082815260200191505060405180910390f35b3480156104b357600080fd5b50610520600480360360608110156104ca57600080fd5b81019080803573ffffffffffffffffffffffffffffffffffffffff169060200190929190803573ffffffffffffffffffffffffffffffffffffffff169060200190929190803590602001909291905050506112c4565b005b34801561052e57600080fd5b5061055b6004803603602081101561054557600080fd5b81019080803590602001909291905050506112e4565b6040518082815260200191505060405180910390f35b34801561057d57600080fd5b506105aa6004803603602081101561059457600080fd5b8101908080359060200190929190505050611307565b604051808273ffffffffffffffffffffffffffffffffffffffff1673ffffffffffffffffffffffffffffffffffffffff16815260200191505060405180910390f35b3480156105f857600080fd5b5061060161133e565b6040518082815260200191505060405180910390f35b34801561062357600080fd5b5061062c61134f565b6040518080602001828103825283818151815260200191508051906020019080838360005b8381101561066c578082015181840152602081019050610651565b50505050905090810190601f1680156106995780820380516001836020036101000a031916815260200191505b509250505060405180910390f35b3480156106b357600080fd5b506106f6600480360360208110156106ca57600080fd5b81019080803573ffffffffffffffffffffffffffffffffffffffff1690602001909291905050506113f1565b6040518082815260200191505060405180910390f35b34801561071857600080fd5b506107216114c6565b6040518082815260200191505060405180910390f35b34801561074357600080fd5b5061074c6114d0565b6040518080602001828103825283818151815260200191508051906020019080838360005b8381101561078c578082015181840152602081019050610771565b50505050905090810190601f1680156107b95780820380516001836020036101000a031916815260200191505b509250505060405180910390f35b3480156107d357600080fd5b50610822600480360360408110156107ea57600080fd5b81019080803573ffffffffffffffffffffffffffffffffffffffff169060200190929190803515159060200190929190505050611572565b005b34801561083057600080fd5b506109346004803603608081101561084757600080fd5b81019080803573ffffffffffffffffffffffffffffffffffffffff169060200190929190803573ffffffffffffffffffffffffffffffffffffffff16906020019092919080359060200190929190803590602001906401000000008111156108ae57600080fd5b8201836020820111156108c057600080fd5b803590602001918460018302840111640100000000831117156108e257600080fd5b91908080601f016020809104026020016040519081016040528093929190818152602001838380828437600081840152601f19601f82011690508083019250505050505050919291929050505061172a565b005b34801561094257600080fd5b50610a066004803603604081101561095957600080fd5b81019080803590602001909291908035906020019064010000000081111561098057600080fd5b82018360208201111561099257600080fd5b803590602001918460018302840111640100000000831117156109b457600080fd5b91908080601f016020809104026020016040519081016040528093929190818152602001838380828437600081840152601f19601f8201169050808301925050505050505091929192905050506117a2565b005b348015610a1457600080fd5b50610a1d611806565b6040518080602001828103825283818151815260200191508051906020019080838360005b83811015610a5d578082015181840152602081019050610a42565b50505050905090810190601f168015610a8a5780820380516001836020036101000a031916815260200191505b509250505060405180910390f35b348015610aa457600080fd5b50610ad160048036036020811015610abb57600080fd5b81019080803590602001909291905050506118a8565b6040518080602001828103825283818151815260200191508051906020019080838360005b83811015610b11578082015181840152602081019050610af6565b50505050905090810190601f168015610b3e5780820380516001836020036101000a031916815260200191505b509250505060405180910390f35b348015610b5857600080fd5b50610bbb60048036036040811015610b6f57600080fd5b81019080803573ffffffffffffffffffffffffffffffffffffffff169060200190929190803573ffffffffffffffffffffffffffffffffffffffff169060200190929190505050611b79565b604051808215151515815260200191505060405180910390f35b348015610be157600080fd5b50610bea611c0d565b6040518082815260200191505060405180910390f35b6000806000837bffffffffffffffffffffffffffffffffffffffffffffffffffffffff19167bffffffffffffffffffffffffffffffffffffffffffffffffffffffff1916815260200190815260200160002060009054906101000a900460ff169050919050565b606060068054600181600116156101000203166002900480601f016020809104026020016040519081016040528092919081815260200182805460018160011615610100020316600290048015610cff5780601f10610cd457610100808354040283529160200191610cff565b820191906000526020600020905b815481529060010190602001808311610ce257829003601f168201915b5050505050905090565b6000610d1482611c17565b610d69576040517f08c379a000000000000000000000000000000000000000000000000000000000815260040180806020018281038252602c815260200180613612602c913960400191505060405180910390fd5b6004600083815260200190815260200160002060009054906101000a900473ffffffffffffffffffffffffffffffffffffffff169050919050565b6000610daf82611307565b90508073ffffffffffffffffffffffffffffffffffffffff168373ffffffffffffffffffffffffffffffffffffffff161415610e36576040517f08c379a00000000000000000000000000000000000000000000000000000000081526004018080602001828103825260218152602001806136966021913960400191505060405180910390fd5b8073ffffffffffffffffffffffffffffffffffffffff16610e55611c34565b73ffffffffffffffffffffffffffffffffffffffff161480610e845750610e8381610e7e611c34565b611b79565b5b610ed9576040517f08c379a00000000000000000000000000000000000000000000000000000000081526004018080602001828103825260388152602001806135446038913960400191505060405180910390fd5b610ee38383611c3c565b505050565b6000610ef46002611cf5565b905090565b610f0a610f04611c34565b82611d0a565b610f5f576040517f08c379a00000000000000000000000000000000000000000000000000000000081526004018080602001828103825260318152602001806136b76031913960400191505060405180910390fd5b610f6a838383611dfe565b505050565b6000610fc282600160008673ffffffffffffffffffffffffffffffffffffffff1673ffffffffffffffffffffffffffffffffffffffff16815260200190815260200160002061204190919063ffffffff16565b905092915050565b600080610ff7610fe5600e544261205c90919063ffffffff16565b62014a7861205c90919063ffffffff16565b90506000670de0b6b3a7640000905060008211156110695761106661104f62014a786110416110326002600d546120df90919063ffffffff16565b866120df90919063ffffffff16565b61216590919063ffffffff16565b670de0b6b3a76400006121ee90919063ffffffff16565b90505b670de0b6b3a76400008110156110e7576040517f08c379a000000000000000000000000000000000000000000000000000000000815260040180806020018281038252600f8152602001807f636f6e74726163742062726f6b656e000000000000000000000000000000000081525060200191505060405180910390fd5b8034101561115d576040517f08c379a00000000000000000000000000000000000000000000000000000000081526004018080602001828103825260128152602001807f6469646e27742073656e6420656e6f756768000000000000000000000000000081525060200191505060405180910390fd5b600c60009054906101000a900473ffffffffffffffffffffffffffffffffffffffff1673ffffffffffffffffffffffffffffffffffffffff166108fc349081150290604051600060405180830381858888f193505050501580156111c5573d6000803e3d6000fd5b5034600d8190555042600e819055506111de600a612276565b60006111ea600a61228c565b90506111f6858261229a565b807fa198e4d3a50ce07d020c16f3758076bc00bcdcc3fc1a43f55e7b8c28609d791f34600b60405180838152602001806020018281038252838181546001816001161561010002031660029004815260200191508054600181600116156101000203166002900480156112aa5780601f1061127f576101008083540402835291602001916112aa565b820191906000526020600020905b81548152906001019060200180831161128d57829003601f168201915b5050935050505060405180910390a2809350505050919050565b6112df8383836040518060200160405280600081525061172a565b505050565b6000806112fb83600261248e90919063ffffffff16565b50905080915050919050565b6000611337826040518060600160405280602981526020016135a66029913960026124bf9092919063ffffffff16565b9050919050565b600061134a600a61228c565b905090565b606060098054600181600116156101000203166002900480601f0160208091040260200160405190810160405280929190818152602001828054600181600116156101000203166002900480156113e75780601f106113bc576101008083540402835291602001916113e7565b820191906000526020600020905b8154815290600101906020018083116113ca57829003601f168201915b5050505050905090565b60008073ffffffffffffffffffffffffffffffffffffffff168273ffffffffffffffffffffffffffffffffffffffff161415611478576040517f08c379a000000000000000000000000000000000000000000000000000000000815260040180806020018281038252602a81526020018061357c602a913960400191505060405180910390fd5b6114bf600160008473ffffffffffffffffffffffffffffffffffffffff1673ffffffffffffffffffffffffffffffffffffffff1681526020019081526020016000206124df565b9050919050565b6000600d54905090565b606060078054600181600116156101000203166002900480601f0160208091040260200160405190810160405280929190818152602001828054600181600116156101000203166002900480156115685780601f1061153d57610100808354040283529160200191611568565b820191906000526020600020905b81548152906001019060200180831161154b57829003601f168201915b5050505050905090565b61157a611c34565b73ffffffffffffffffffffffffffffffffffffffff168273ffffffffffffffffffffffffffffffffffffffff16141561161b576040517f08c379a00000000000000000000000000000000000000000000000000000000081526004018080602001828103825260198152602001807f4552433732313a20617070726f766520746f2063616c6c65720000000000000081525060200191505060405180910390fd5b8060056000611628611c34565b73ffffffffffffffffffffffffffffffffffffffff1673ffffffffffffffffffffffffffffffffffffffff16815260200190815260200160002060008473ffffffffffffffffffffffffffffffffffffffff1673ffffffffffffffffffffffffffffffffffffffff16815260200190815260200160002060006101000a81548160ff0219169083151502179055508173ffffffffffffffffffffffffffffffffffffffff166116d5611c34565b73ffffffffffffffffffffffffffffffffffffffff167f17307eab39ab6107e8899845ad3d59bd9653f200f220920489ca2b5937696c3183604051808215151515815260200191505060405180910390a35050565b61173b611735611c34565b83611d0a565b611790576040517f08c379a00000000000000000000000000000000000000000000000000000000081526004018080602001828103825260318152602001806136b76031913960400191505060405180910390fd5b61179c848484846124f4565b50505050565b6117ab82611307565b73ffffffffffffffffffffffffffffffffffffffff163373ffffffffffffffffffffffffffffffffffffffff16146117e257600080fd5b80600b90805190602001906117f892919061338c565b5061180282612566565b5050565b6060600b8054600181600116156101000203166002900480601f01602080910402602001604051908101604052809291908181526020018280546001816001161561010002031660029004801561189e5780601f106118735761010080835404028352916020019161189e565b820191906000526020600020905b81548152906001019060200180831161188157829003601f168201915b5050505050905090565b60606118b382611c17565b611908576040517f08c379a000000000000000000000000000000000000000000000000000000000815260040180806020018281038252602f815260200180613667602f913960400191505060405180910390fd5b6060600860008481526020019081526020016000208054600181600116156101000203166002900480601f0160208091040260200160405190810160405280929190818152602001828054600181600116156101000203166002900480156119b15780601f10611986576101008083540402835291602001916119b1565b820191906000526020600020905b81548152906001019060200180831161199457829003601f168201915b5050505050905060606119c261134f565b90506000815114156119d8578192505050611b74565b600082511115611aa95780826040516020018083805190602001908083835b60208310611a1a57805182526020820191506020810190506020830392506119f7565b6001836020036101000a03801982511681845116808217855250505050505090500182805190602001908083835b60208310611a6b5780518252602082019150602081019050602083039250611a48565b6001836020036101000a0380198251168184511680821785525050505050509050019250505060405160208183030381529060405292505050611b74565b80611ab3856126a0565b6040516020018083805190602001908083835b60208310611ae95780518252602082019150602081019050602083039250611ac6565b6001836020036101000a03801982511681845116808217855250505050505090500182805190602001908083835b60208310611b3a5780518252602082019150602081019050602083039250611b17565b6001836020036101000a03801982511681845116808217855250505050505090500192505050604051602081830303815290604052925050505b919050565b6000600560008473ffffffffffffffffffffffffffffffffffffffff1673ffffffffffffffffffffffffffffffffffffffff16815260200190815260200160002060008373ffffffffffffffffffffffffffffffffffffffff1673ffffffffffffffffffffffffffffffffffffffff16815260200190815260200160002060009054906101000a900460ff16905092915050565b6000600e54905090565b6000611c2d8260026127ef90919063ffffffff16565b9050919050565b600033905090565b816004600083815260200190815260200160002060006101000a81548173ffffffffffffffffffffffffffffffffffffffff021916908373ffffffffffffffffffffffffffffffffffffffff160217905550808273ffffffffffffffffffffffffffffffffffffffff16611caf83611307565b73ffffffffffffffffffffffffffffffffffffffff167f8c5be1e5ebec7d5bd14f71427d1e84f3dd0314c0f7b2291e5b200ac8c7c3b92560405160405180910390a45050565b6000611d0382600001612809565b9050919050565b6000611d1582611c17565b611d6a576040517f08c379a000000000000000000000000000000000000000000000000000000000815260040180806020018281038252602c815260200180613518602c913960400191505060405180910390fd5b6000611d7583611307565b90508073ffffffffffffffffffffffffffffffffffffffff168473ffffffffffffffffffffffffffffffffffffffff161480611de457508373ffffffffffffffffffffffffffffffffffffffff16611dcc84610d09565b73ffffffffffffffffffffffffffffffffffffffff16145b80611df55750611df48185611b79565b5b91505092915050565b8273ffffffffffffffffffffffffffffffffffffffff16611e1e82611307565b73ffffffffffffffffffffffffffffffffffffffff1614611e8a576040517f08c379a000000000000000000000000000000000000000000000000000000000815260040180806020018281038252602981526020018061363e6029913960400191505060405180910390fd5b600073ffffffffffffffffffffffffffffffffffffffff168273ffffffffffffffffffffffffffffffffffffffff161415611f10576040517f08c379a00000000000000000000000000000000000000000000000000000000081526004018080602001828103825260248152602001806134ce6024913960400191505060405180910390fd5b611f1b83838361281a565b611f26600082611c3c565b611f7781600160008673ffffffffffffffffffffffffffffffffffffffff1673ffffffffffffffffffffffffffffffffffffffff16815260200190815260200160002061281f90919063ffffffff16565b50611fc981600160008573ffffffffffffffffffffffffffffffffffffffff1673ffffffffffffffffffffffffffffffffffffffff16815260200190815260200160002061283990919063ffffffff16565b50611fe0818360026128539092919063ffffffff16565b50808273ffffffffffffffffffffffffffffffffffffffff168473ffffffffffffffffffffffffffffffffffffffff167fddf252ad1be2c89b69c2b068fc378daa952ba7f163c4a11628f55a4df523b3ef60405160405180910390a4505050565b60006120508360000183612888565b60019004905092915050565b6000828211156120d4576040517f08c379a000000000000000000000000000000000000000000000000000000000815260040180806020018281038252601e8152602001807f536166654d6174683a207375627472616374696f6e206f766572666c6f77000081525060200191505060405180910390fd5b818303905092915050565b6000808314156120f2576000905061215f565b600082840290508284828161210357fe5b041461215a576040517f08c379a00000000000000000000000000000000000000000000000000000000081526004018080602001828103825260218152602001806135f16021913960400191505060405180910390fd5b809150505b92915050565b60008082116121dc576040517f08c379a000000000000000000000000000000000000000000000000000000000815260040180806020018281038252601a8152602001807f536166654d6174683a206469766973696f6e206279207a65726f00000000000081525060200191505060405180910390fd5b8183816121e557fe5b04905092915050565b60008082840190508381101561226c576040517f08c379a000000000000000000000000000000000000000000000000000000000815260040180806020018281038252601b8152602001807f536166654d6174683a206164646974696f6e206f766572666c6f77000000000081525060200191505060405180910390fd5b8091505092915050565b6001816000016000828254019250508190555050565b600081600001549050919050565b600073ffffffffffffffffffffffffffffffffffffffff168273ffffffffffffffffffffffffffffffffffffffff16141561233d576040517f08c379a00000000000000000000000000000000000000000000000000000000081526004018080602001828103825260208152602001807f4552433732313a206d696e7420746f20746865207a65726f206164647265737381525060200191505060405180910390fd5b61234681611c17565b156123b9576040517f08c379a000000000000000000000000000000000000000000000000000000000815260040180806020018281038252601c8152602001807f4552433732313a20746f6b656e20616c7265616479206d696e7465640000000081525060200191505060405180910390fd5b6123c56000838361281a565b61241681600160008573ffffffffffffffffffffffffffffffffffffffff1673ffffffffffffffffffffffffffffffffffffffff16815260200190815260200160002061283990919063ffffffff16565b5061242d818360026128539092919063ffffffff16565b50808273ffffffffffffffffffffffffffffffffffffffff16600073ffffffffffffffffffffffffffffffffffffffff167fddf252ad1be2c89b69c2b068fc378daa952ba7f163c4a11628f55a4df523b3ef60405160405180910390a45050565b6000806000806124a1866000018661290b565b91509150816001900481600190048090509350935050509250929050565b60006124d28460000184600102846129a4565b6001900490509392505050565b60006124ed82600001612a9a565b9050919050565b6124ff848484611dfe565b61250b84848484612aab565b612560576040517f08c379a000000000000000000000000000000000000000000000000000000000815260040180806020018281038252603281526020018061349c6032913960400191505060405180910390fd5b50505050565b600061257182611307565b905061257f8160008461281a565b61258a600083611c3c565b600060086000848152602001908152602001600020805460018160011615610100020316600290049050146125d9576008600083815260200190815260200160002060006125d8919061340c565b5b61262a82600160008473ffffffffffffffffffffffffffffffffffffffff1673ffffffffffffffffffffffffffffffffffffffff16815260200190815260200160002061281f90919063ffffffff16565b5061263f826002612d2890919063ffffffff16565b5081600073ffffffffffffffffffffffffffffffffffffffff168273ffffffffffffffffffffffffffffffffffffffff167fddf252ad1be2c89b69c2b068fc378daa952ba7f163c4a11628f55a4df523b3ef60405160405180910390a45050565b606060008214156126e8576040518060400160405280600181526020017f300000000000000000000000000000000000000000000000000000000000000081525090506127ea565b600082905060005b60008214612712578080600101915050600a828161270a57fe5b0491506126f0565b6060816040519080825280601f01601f1916602001820160405280156127475781602001600182028038833980820191505090505b50905060006001830390508593505b600084146127e257600a848161276857fe5b066030017f010000000000000000000000000000000000000000000000000000000000000002828280600190039350815181106127a157fe5b60200101907effffffffffffffffffffffffffffffffffffffffffffffffffffffffffffff1916908160001a905350600a84816127da57fe5b049350612756565b819450505050505b919050565b60006128018360000183600102612d42565b905092915050565b600081600001805490509050919050565b505050565b60006128318360000183600102612d65565b905092915050565b600061284b8360000183600102612e4d565b905092915050565b600061287f84600001846001028473ffffffffffffffffffffffffffffffffffffffff16600102612ebd565b90509392505050565b6000818360000180549050116128e9576040517f08c379a000000000000000000000000000000000000000000000000000000000815260040180806020018281038252602281526020018061347a6022913960400191505060405180910390fd5b8260000182815481106128f857fe5b9060005260206000200154905092915050565b6000808284600001805490501161296d576040517f08c379a00000000000000000000000000000000000000000000000000000000081526004018080602001828103825260228152602001806135cf6022913960400191505060405180910390fd5b600084600001848154811061297e57fe5b906000526020600020906002020190508060000154816001015492509250509250929050565b60008084600101600085815260200190815260200160002054905060008114158390612a6b576040517f08c379a00000000000000000000000000000000000000000000000000000000081526004018080602001828103825283818151815260200191508051906020019080838360005b83811015612a30578082015181840152602081019050612a15565b50505050905090810190601f168015612a5d5780820380516001836020036101000a031916815260200191505b509250505060405180910390fd5b50846000016001820381548110612a7e57fe5b9060005260206000209060020201600101549150509392505050565b600081600001805490509050919050565b6000612acc8473ffffffffffffffffffffffffffffffffffffffff16612f99565b612ad95760019050612d20565b6060612c8b63150b7a027c010000000000000000000000000000000000000000000000000000000002612b0a611c34565b888787604051602401808573ffffffffffffffffffffffffffffffffffffffff1673ffffffffffffffffffffffffffffffffffffffff1681526020018473ffffffffffffffffffffffffffffffffffffffff1673ffffffffffffffffffffffffffffffffffffffff16815260200183815260200180602001828103825283818151815260200191508051906020019080838360005b83811015612bba578082015181840152602081019050612b9f565b50505050905090810190601f168015612be75780820380516001836020036101000a031916815260200191505b5095505050505050604051602081830303815290604052907bffffffffffffffffffffffffffffffffffffffffffffffffffffffff19166020820180517bffffffffffffffffffffffffffffffffffffffffffffffffffffffff838183161783525050505060405180606001604052806032815260200161349c603291398773ffffffffffffffffffffffffffffffffffffffff16612fac9092919063ffffffff16565b90506000818060200190516020811015612ca457600080fd5b8101908080519060200190929190505050905063150b7a027c0100000000000000000000000000000000000000000000000000000000027bffffffffffffffffffffffffffffffffffffffffffffffffffffffff1916817bffffffffffffffffffffffffffffffffffffffffffffffffffffffff191614925050505b949350505050565b6000612d3a8360000183600102612fc4565b905092915050565b600080836001016000848152602001908152602001600020541415905092915050565b60008083600101600084815260200190815260200160002054905060008114612e415760006001820390506000600186600001805490500390506000866000018281548110612db057fe5b9060005260206000200154905080876000018481548110612dcd57fe5b9060005260206000200181905550600183018760010160008381526020019081526020016000208190555086600001805480612e0557fe5b60019003818190600052602060002001600090559055866001016000878152602001908152602001600020600090556001945050505050612e47565b60009150505b92915050565b6000612e5983836130dd565b612eb2578260000182908060018154018082558091505060019003906000526020600020016000909190919091505582600001805490508360010160008481526020019081526020016000208190555060019050612eb7565b600090505b92915050565b6000808460010160008581526020019081526020016000205490506000811415612f6457846000016040518060400160405280868152602001858152509080600181540180825580915050600190039060005260206000209060020201600090919091909150600082015181600001556020820151816001015550508460000180549050856001016000868152602001908152602001600020819055506001915050612f92565b82856000016001830381548110612f7757fe5b90600052602060002090600202016001018190555060009150505b9392505050565b600080823b905060008111915050919050565b6060612fbb8484600085613100565b90509392505050565b600080836001016000848152602001908152602001600020549050600081146130d1576000600182039050600060018660000180549050039050600086600001828154811061300f57fe5b906000526020600020906002020190508087600001848154811061302f57fe5b906000526020600020906002020160008201548160000155600182015481600101559050506001830187600101600083600001548152602001908152602001600020819055508660000180548061308257fe5b60019003818190600052602060002090600202016000808201600090556001820160009055505090558660010160008781526020019081526020016000206000905560019450505050506130d7565b60009150505b92915050565b600080836001016000848152602001908152602001600020541415905092915050565b6060823073ffffffffffffffffffffffffffffffffffffffff16311015613172576040517f08c379a00000000000000000000000000000000000000000000000000000000081526004018080602001828103825260268152602001806134f26026913960400191505060405180910390fd5b61317b85612f99565b6131ed576040517f08c379a000000000000000000000000000000000000000000000000000000000815260040180806020018281038252601d8152602001807f416464726573733a2063616c6c20746f206e6f6e2d636f6e747261637400000081525060200191505060405180910390fd5b600060608673ffffffffffffffffffffffffffffffffffffffff1685876040518082805190602001908083835b6020831061323d578051825260208201915060208101905060208303925061321a565b6001836020036101000a03801982511681845116808217855250505050505090500191505060006040518083038185875af1925050503d806000811461329f576040519150601f19603f3d011682016040523d82523d6000602084013e6132a4565b606091505b50915091506132b48282866132c0565b92505050949350505050565b606083156132d057829050613385565b6000835111156132e35782518084602001fd5b816040517f08c379a00000000000000000000000000000000000000000000000000000000081526004018080602001828103825283818151815260200191508051906020019080838360005b8381101561334a57808201518184015260208101905061332f565b50505050905090810190601f1680156133775780820380516001836020036101000a031916815260200191505b509250505060405180910390fd5b9392505050565b828054600181600116156101000203166002900490600052602060002090601f016020900481019282601f106133cd57805160ff19168380011785556133fb565b828001600101855582156133fb579182015b828111156133fa5782518255916020019190600101906133df565b5b5090506134089190613454565b5090565b50805460018160011615610100020316600290046000825580601f106134325750613451565b601f0160209004906000526020600020908101906134509190613454565b5b50565b61347691905b8082111561347257600081600090555060010161345a565b5090565b9056fe456e756d657261626c655365743a20696e646578206f7574206f6620626f756e64734552433732313a207472616e7366657220746f206e6f6e20455243373231526563656976657220696d706c656d656e7465724552433732313a207472616e7366657220746f20746865207a65726f2061646472657373416464726573733a20696e73756666696369656e742062616c616e636520666f722063616c6c4552433732313a206f70657261746f7220717565727920666f72206e6f6e6578697374656e7420746f6b656e4552433732313a20617070726f76652063616c6c6572206973206e6f74206f776e6572206e6f7220617070726f76656420666f7220616c6c4552433732313a2062616c616e636520717565727920666f7220746865207a65726f20616464726573734552433732313a206f776e657220717565727920666f72206e6f6e6578697374656e7420746f6b656e456e756d657261626c654d61703a20696e646578206f7574206f6620626f756e6473536166654d6174683a206d756c7469706c69636174696f6e206f766572666c6f774552433732313a20617070726f76656420717565727920666f72206e6f6e6578697374656e7420746f6b656e4552433732313a207472616e73666572206f6620746f6b656e2074686174206973206e6f74206f776e4552433732314d657461646174613a2055524920717565727920666f72206e6f6e6578697374656e7420746f6b656e4552433732313a20617070726f76616c20746f2063757272656e74206f776e65724552433732313a207472616e736665722063616c6c6572206973206e6f74206f776e6572206e6f7220617070726f766564a26469706673582212202f781639886bb9740202c301dbfe2910201d5b9c1d644841ef2945862510c26464736f6c63430006020033",
  "source": "pragma solidity ^0.6.2;\r\nimport \"@openzeppelin/contracts/token/ERC721/ERC721.sol\";\r\nimport \"@openzeppelin/contracts/utils/Counters.sol\";\r\nimport \"@openzeppelin/contracts/math/SafeMath.sol\";\r\n\r\ncontract FuckoPops is ERC721 {\r\n    using Counters for Counters.Counter;\r\n    using SafeMath for uint256;\r\n    event Mint(uint256 indexed tokenId, uint256 salePrice, string codeHash);\r\n    Counters.Counter private _tokenIds;\r\n    string private _generativeCodeHash;\r\n    address payable private _mainFuckoGuy;\r\n    uint256 constant basePrice = 1000000000000000000;\r\n    uint256 constant secondsInDay = 84600;\r\n    uint256 private _lastSalePrice;\r\n    uint256 private _lastSaleTime;\r\n\r\n    constructor(address payable guy, string memory generativeCodeHash) public ERC721(\"FuckoPop\", \"FUCK\") {\r\n        _mainFuckoGuy = guy;\r\n        _generativeCodeHash = generativeCodeHash;\r\n        _lastSalePrice = basePrice;\r\n        _lastSaleTime = now;\r\n    }\r\n\r\n    function mintFucko(address recipient) public payable returns (uint256) {\r\n        uint256 secondsToEndOfSale = secondsInDay.sub(now.sub(_lastSaleTime));\r\n        uint256 minValue = basePrice;\r\n        if (secondsToEndOfSale > 0) {\r\n            minValue = basePrice.add(secondsToEndOfSale.mul(_lastSalePrice.mul(2)).div(secondsInDay));\r\n        }\r\n        require(minValue >= basePrice, \"contract broken\");\r\n        require(msg.value >= minValue, \"didn't send enough\");\r\n        _mainFuckoGuy.transfer(msg.value);\r\n        _lastSalePrice = msg.value;\r\n        _lastSaleTime = now;\r\n        _tokenIds.increment();\r\n        uint256 newItemId = _tokenIds.current();\r\n        _mint(recipient, newItemId);\r\n        emit Mint(newItemId, msg.value, _generativeCodeHash);\r\n        return newItemId;\r\n    }\r\n\r\n    function sacrificeFucko(\r\n        uint256 fuckoId,\r\n        string memory newGenerativeCodeHash\r\n    ) public {\r\n        require(msg.sender == ownerOf(fuckoId));\r\n        _generativeCodeHash = newGenerativeCodeHash;\r\n        _burn(fuckoId);\r\n    }\r\n\r\n    function lastMintedTokenId() public view virtual returns (uint256) {\r\n        return _tokenIds.current();\r\n    }\r\n\r\n    function lastSalePrice() public view virtual returns (uint256) {\r\n        return _lastSalePrice;\r\n    }\r\n\r\n    function lastSaleTime() public view virtual returns (uint256) {\r\n        return _lastSaleTime;\r\n    }\r\n\r\n    function currentGenerativeCodeHash() public view virtual returns (string memory) {\r\n        return _generativeCodeHash;\r\n    }\r\n}\r\n",
  "sourcePath": "C:/Users/Trimbo/fucko-pops/fucko-contracts/contracts/FuckoPops.sol",
  "compiler": {
    "name": "solc",
    "version": "0.6.2+commit.bacdbe57.Emscripten.clang"
  },
  "schemaVersion": "3.3.4",
  "updatedAt": "2021-03-02T22:47:22.656Z",
  "networkType": "ethereum",
  "devdoc": {
    "methods": {
      "approve(address,uint256)": {
        "details": "See {IERC721-approve}."
      },
      "balanceOf(address)": {
        "details": "See {IERC721-balanceOf}."
      },
      "baseURI()": {
        "details": "Returns the base URI set via {_setBaseURI}. This will be automatically added as a prefix in {tokenURI} to each token's URI, or to the token ID if no specific URI is set for that token ID."
      },
      "getApproved(uint256)": {
        "details": "See {IERC721-getApproved}."
      },
      "isApprovedForAll(address,address)": {
        "details": "See {IERC721-isApprovedForAll}."
      },
      "name()": {
        "details": "See {IERC721Metadata-name}."
      },
      "ownerOf(uint256)": {
        "details": "See {IERC721-ownerOf}."
      },
      "safeTransferFrom(address,address,uint256)": {
        "details": "See {IERC721-safeTransferFrom}."
      },
      "safeTransferFrom(address,address,uint256,bytes)": {
        "details": "See {IERC721-safeTransferFrom}."
      },
      "setApprovalForAll(address,bool)": {
        "details": "See {IERC721-setApprovalForAll}."
      },
      "supportsInterface(bytes4)": {
        "details": "See {IERC165-supportsInterface}.     * Time complexity O(1), guaranteed to always use less than 30 000 gas."
      },
      "symbol()": {
        "details": "See {IERC721Metadata-symbol}."
      },
      "tokenByIndex(uint256)": {
        "details": "See {IERC721Enumerable-tokenByIndex}."
      },
      "tokenOfOwnerByIndex(address,uint256)": {
        "details": "See {IERC721Enumerable-tokenOfOwnerByIndex}."
      },
      "tokenURI(uint256)": {
        "details": "See {IERC721Metadata-tokenURI}."
      },
      "totalSupply()": {
        "details": "See {IERC721Enumerable-totalSupply}."
      },
      "transferFrom(address,address,uint256)": {
        "details": "See {IERC721-transferFrom}."
      }
    }
  },
  "userdoc": {
    "methods": {}
  }
}